:1000000012C019C018C017C016C015C014C013C044
:1000100012C011C010C00FC00EC00DC00CC00BC06C
:100020000AC009C008C011241FBECFE5D4E0DEBF5E
:10003000CDBF02D047C0E4CF8FB580688FBD8FB5EC
:100040008F7B8FBD8EB581608EBD8EB58D7F8EBD51
:100050008EB58B7F8EBD8FB581608FBD8FB5826071
:100060008FBD8EB588608EBD8EB58F7E8EBD8EB5F0
:1000700081608EBD8EB58D7F8EBD8EB58B7F8EBD22
:1000800085B58F7E85BD85B5806285BD85B5886067
:1000900085BD85B5806485BD85B5816085BD85B527
:1000A0008D7F85BD85B58B7F85BD87B38A6087BB16
:1000B00088B3857F88BB8FEF93E09BBD8ABD80E8C6
:0800C00083BDFFCFF894FFCFD0
:00000001FF
